:03000000020101F9
:0C010100787FE4F6D8FD75810902008EBD
:0A010D00C0F9A4B0999282F8809026
:0A00D700F583E493F5A07F1E7E0080
:1000E100E4FDFCC3ED9FEC9E5015E4FBFA0BBB0055
:0F00F100010ABA01F8BBC8F50DBD00010C80E48F
:0101000022DC
:10008E00E4F508F50920900B0509E509700205084D
:10009E003090FDD2B0C2B1AE08AF097C007D0A121D
:1000AE000003740D2FF58274013E1200D7C2B0D238
:1000BE00B1AE08AF097C007D0A120003740D2DF558
:0900CE008274013C1200D780BCD1
:10000300C2D5EC30E709B2D5E4C39DFDE49CFCEE18
:1000130030E715B2D5E4C39FFFE49EFE120039C357
:10002300E49DFDE49CFC800312003930D507C3E452
:060033009FFFE49EFE2287
:10003900BC000BBE0029EF8DF084FFADF022E4CCAB
:10004900F875F008EF2FFFEE33FEEC33FCEE9DEC74
:10005900984005FCEE9DFE0FD5F0E9E4CEFD22EDBA
:10006900F8F5F0EE8420D21CFEADF075F008EF2F04
:10007900FFED33FD4007985006D5F0F222C398FDF5
:050089000FD5F0EA2292
:00000001FF
