:0300000002000EED
:0C000E00787FE4F6D8FD758114020055DF
:0A019F00C0F9A4B0999282F8809094
:0C019200020F001E0213003C02110000CE
:10013B008F0EE50E75F00A84E5F090019F93F5A004
:10014B0075B0FD7F057E00120172E4F5B0E50E750A
:10015B00F00A8490019F93F5A075B0FE7F057E0099
:07016B00120172E4F5B0225D
:03000B000200F8F8
:1000F800C0E0C0D0758C63758A630512E512700282
:10010800051164C845117026D3E5149400E51364FD
:100118008094804019E514151470021513751100A8
:10012800751200E510450F7005F50F75101ED0D03B
:03013800D0E032E2
:10009A00E4F508F509F50A750B14F50C750D647588
:1000AA008901758C63758A63D2AFD2A9D28CF5089F
:1000BA00750914750C00750D64D3E5099400E508FB
:1000CA006480948040047F0180027F00EF601EE517
:1000DA000D150DAE0C7002150C4E6007AF0912011A
:0D00EA003B80ECE509150970CA150880C6B9
:0100F70022E6
:10017200E4FDFCC3ED9FEC9E5015E4FBFA0BBB00C3
:0F018200010AEB647D4A70F50DBD00010C80E4AD
:01019100224B
:10001A0002009AE493A3F8E493A34003F68001F262
:10002A0008DFF48029E493A3F85407240CC8C333E7
:10003A00C4540F4420C8834004F456800146F6DFB6
:10004A00E4800B0102040810204080900192E47EB3
:10005A00019360BCA3FF543F30E509541FFEE493AB
:10006A00A360010ECF54C025E060A840B8E493A372
:10007A00FAE493A3F8E493A3C8C582C8CAC583CA9D
:10008A00F0A3C8C582C8CAC583CADFE9DEE780BE55
:01019E000060
:00000001FF
