:0300000002016496
:0C016400787FE4F6D8FD7581190201AB2C
:10020C001008C0F9A4B0999282F880908883C6A196
:02021C00868ECC
:0401F0007F0A7E0004
:1001F400EF1FAA0670011E4A600D7D78D3ED64805E
:07020400948040EC1D80F521
:01020B0022D0
:0B021F007590FE74082FF8E6F5B02281
:1000030075A0FE85A0185318F0E51864F060491236
:1000130001F085A0185318F0E51864F0603A85A044
:1000230018E5182482601B24C0601224E0600924B0
:10003300F07012E4F519800D751901800875190225
:100043008003751903E51864F0600885A018531838
:10005300F080F2AF1912021F75A0FD85A018531886
:10006300F0E51864F060491201F085A0185318F008
:10007300E51864F0603A85A018E5182483601B2412
:10008300C0601224E0600924F07012751904800D19
:1000930075190580087519068003751907E5186435
:1000A300F0600885A0185318F080F2AF1912021FF0
:1000B30075A0FB85A0185318F0E51864F060491289
:1000C30001F085A0185318F0E51864F0603A85A094
:1000D30018E5182485601B24C0601224E0600924FD
:1000E300F07012751908800D751909800875190AC1
:1000F300800375190BE51864F0600885A018531880
:10010300F080F2AF1912021F75A0F785A0185318DB
:10011300F0E51864F060491201F085A0185318F057
:10012300E51864F0603A85A018E5182489601B245B
:10013300C0601224E0600924F0701275190C800D60
:1001430075190D800875190E800375190FE518646C
:10015300F0600885A0185318F080F2AF1912021F3F
:010163002279
:08022A00E4F5B012000380FBB3
:1001700002022AE493A3F8E493A34003F68001F279
:1001800008DFF48029E493A3F85407240CC8C33390
:10019000C4540F4420C8834004F456800146F6DF5F
:1001A000E4800B010204081020408090020CE47EE1
:1001B000019360BCA3FF543F30E509541FFEE49354
:1001C000A360010ECF54C025E060A840B8E493A31B
:1001D000FAE493A3F8E493A3C8C582C8CAC583CA46
:1001E000F0A3C8C582C8CAC583CADFE9DEE780BEFE
:01021E0000DF
:00000001FF
