:03000000020003F8
:0C000300787FE4F6D8FD75811102004AF8
:0C00CF000A08C0F9A4B0999282F8809051
:10008F00D3EF9400EE6480948040147D6E7C00ED7D
:0F009F001D70011CED4C70F7EF1F70E41E80E127
:0100AE00222F
:1000AF00E4F5A07B09FA74082BF8E6F5A07F907EA3
:0F00BF000112008FEB1B70011ABAFFEABBFFE7BB
:0100CE00220F
:10000F000200AFE493A3F8E493A34003F68001F258
:10001F0008DFF48029E493A3F85407240CC8C333F2
:10002F00C4540F4420C8834004F456800146F6DFC1
:10003F00E4800B01020408102040809000CFE47E82
:10004F00019360BCA3FF543F30E509541FFEE493B6
:10005F00A360010ECF54C025E060A840B8E493A37D
:10006F00FAE493A3F8E493A3C8C582C8CAC583CAA8
:10007F00F0A3C8C582C8CAC583CADFE9DEE780BE60
:0100DB000024
:00000001FF
