:100636006A6975203D20002E2E2E006D6F6C2F4CA2
:0306460000200091
:0406A8000218000034
:02057F008F08E3
:100581001206817F90120551500612069E7F0022AD
:10059100E5084440FF1205511206817F9112055171
:0A05A1001205AC8F0912069EAF0987
:0105AB00222D
:10051D001206227BFF7A067936E4FDFC7F01FE127E
:10052D0004CE7BFF7A06793D7D067C007F017E003F
:10053D001204CE7BFF7A0679417D0B7C007F017E14
:04054D00000204CED6
:10046600AC17E41201B3E4FBFA79FA7843120003FD
:10047600E4FBFA797F784312010C1201E78E188F9C
:10048600197C007D64120377EF2430F51375142E62
:10049600AE18AF197C007D0A1203777C007D0A1224
:1004A6000377ED2430F515AE18AF197C007D0A12DE
:1004B6000377ED2430F5167B007A0079137D067CF0
:0804C600007F017E000204CE5C
:1005D80012062212051D7F0A7E001206027F0312F0
:1005E800057F8F171204667BFF7A0679477D0A7CA0
:0A05F800007F017E001204CE80E3B4
:0206AD0080C00B
:0A060200EF1FAC0670011E4C6015DE
:10060C00750800750964E5091509AC087002150830
:05061C004C60E380F1D9
:0106210022B6
:10066F0075A0FFC290D291D292AFA0C292EF20E7B5
:01067F00F684
:010680002257
:10064900AE0712066FC292D290C2918EA0D29200CA
:03065900C2922228
:10065C00AE0712066FC292C290C2918EA0D29200C7
:03066C00C2922215
:0E04CE008E088F098C0A8D0B8B0C8A0D890EFF
:1004DC00E4F50FF51078117C00FD7BFF7A0679AD01
:1004EC00FE7F0212033874112509F8E6450BFF1242
:1004FC00065CAB0CAA0DA90E12035E6013050EE58B
:10050C000E7002050D14F912035EFF12064980E20B
:01051C0022BC
:100622007F3812065C7F0112065C7F0612065C7F31
:040632000C02065C54
:07069000C2B7120697D2B6B3
:07069700000000000000223A
:0F068100D2B6D2B7120697C2B7120697C2B622E8
:0A069E00C2B6120690D2B70206970A
:10055100C2007E80EE60145F7004C2B78002D2B721
:10056100120692C2B6EEC313FE80E9D2B712069705
:0D057100D2B6A2B79200120697C2B6A20041
:01057E00225A
:1005AC00E4FFD2B7C2B67E80EE601B120697D2B6BD
:1005BC0030B70442078004EEF45207120697C2B615
:0B05CC00EEC313FE80E2120690C2B6E0
:0105D7002201
:10000300EC4D6011E8497017ED33EC3304600DE4F7
:10001300FCFFFEFD22E933E8330470F802025312B9
:10002300021E58046009E4CC2481500628500902BA
:10003300025D28400302025AC0E0EB4A7044B980D3
:1000430006D0E0FB020249EF4E701CBD8008EBFFB7
:10005300EAFEE9FD80EBE98DF0A4FEE5F00200EC99
:10006300E9CDF9EAFEEBFFEF89F0A4FCE5F0CE89D8
:10007300F0A42EFFE435F0CD89F0A42DFEE435F095
:100083008067EF4E7005BD80D780C3EF8BF0A4ACC3
:10009300F0EE8BF0A42CFCE435F0F8EF8AF0A42CFE
:1000A300E5F038FCE433CB8DF0A42CFCE5F03BF811
:1000B300EE8AF0A42CFCE5F038F8E433CF89F0A401
:1000C3002CFCE5F038CF3400CE89F0A42FFFE5F007
:1000D3003EFEE433C98DF0A42EFEE5F039CD8AF05F
:1000E300A42FFFE5F03EFEE43DFD33D0E0FB5007D7
:1000F3000BBB000F02025DEC2CFCEF33FFEE33FE73
:06010300ED33FD020235A0
:1001090002025DEC5D046005E859047003020253C4
:1001190012021E580460F6EC4860F2EC7004FDFE11
:10012900FF22C860DB2481C85009C39860025006C9
:1001390002025A9850CAF582E9294B4A7005AB82E6
:1001490002024975F0007C1A7880C3EF9BEE9AEDA4
:1001590099400DC3EF9BFFEE9AFEED99FDE842F041
:10016900DC23ACF0D0E0FFD0E0FED0E0FDAB822094
:10017900E7101BEB60BAEC2CFCEF33FFEE33FEED1E
:1001890033FD020235E803F830E705C0F075F000E9
:10019900EF2FFFEE33FEED33FD40B830E7C280AA02
:1001A90075F020800E75F010800575F0087D007ED1
:1001B900007F003392D530D5031203CCEC334010C5
:1001C900EF33FFEE33FEED33FDEC33FCD5F0ED22DA
:0E01D900E5F0247EA2D513CC92E7CDCEFF2216
:1001E700EDD2E7CD33EC3392D524814006E4FFFE10
:1001F700FDFC22FCE4CFCECDCC24E0501174FF806F
:10020700EDC3CC13CCCD13CDCE13CECF13CF04700B
:07021700F030D5DE0203CC3C
:10021E00E9D2E7C933E833F892D5EDD2E7CD33EC26
:07022E0033FC5002B2D5229F
:10023500EC30E7100FBF000C0EBE00080DBD00042A
:100245000BEB6014A2D5EB13FCED92E7FD2274FFD6
:10025500FCFDFEFF22E480F8A2D574FF13FC7D802F
:03026500E480EF43
:030000000203DA1E
:0C03DA00787FE4F6D8FD75812002042134
:10026800E709F608DFFA8046E709F208DFFA803E78
:1002780088828C83E709F0A3DFFA8032E309F60865
:10028800DFFA8078E309F208DFFA807088828C83CD
:10029800E309F0A3DFFA806489828A83E0A3F60881
:1002A800DFFA805889828A83E0A3F208DFFA804C5B
:1002B80080D280FA80C680D4806980F28033801032
:1002C80080A680EA809A80A880DA80E280CA80339B
:1002D80089828A83ECFAE493A3C8C582C8CCC58313
:1002E800CCF0A3C8C582C8CCC583CCDFE9DEE780E3
:1002F8000D89828A83E493A3F608DFF9ECFAA9F062
:10030800EDFB2289828A83ECFAE0A3C8C582C8CCB7
:10031800C583CCF0A3C8C582C8CCC583CCDFEADED0
:10032800E880DB89828A83E493A3F208DFF980CC32
:1003380088F0EF60010E4E60C388F0ED2402B4042B
:100348000050B9F582EB2402B4040050AF232345D2
:0603580082239002B8733D
:10035E00BB010689828A83E0225002E722BBFE029D
:09036E00E32289828A83E49322D0
:10037700BC000BBE0029EF8DF084FFADF022E4CC6A
:10038700F875F008EF2FFFEE33FEEC33FCEE9DEC33
:10039700984005FCEE9DFE0FD5F0E9E4CEFD22ED79
:1003A700F8F5F0EE8420D21CFEADF075F008EF2FC3
:1003B700FFED33FD4007985006D5F0F222C398FDB4
:0503C7000FD5F0EA2251
:0E03CC00C3E49FFFE49EFEE49DFDE49CFC2242
:1003E6000205D8E493A3F8E493A34003F68001F250
:1003F60008DFF48029E493A3F85407240CC8C33318
:10040600C4540F4420C8834004F456800146F6DFE6
:10041600E4800B01020408102040809006A8E47EC8
:10042600019360BCA3FF543F30E509541FFEE493DB
:10043600A360010ECF54C025E060A840B8E493A3A2
:10044600FAE493A3F8E493A3C8C582C8CAC583CACD
:10045600F0A3C8C582C8CAC583CADFE9DEE780BE85
:0106AC00004D
:00000001FF
