:03000000020003F8
:0C000300787FE4F6D8FD75813202004AD7
:10012F00010800010900100A54656D703A20204340
:10013F000000000000000000101A48756D693A2099
:0A014F002020202500000000000021
:03023700DFFE22C5
:10018300D3EF9400EE940040147D6E7C00ED1D705F
:0D019300011CED4C70F7EF1F70E61E80E3BD
:0101A000223C
:1001EE0075A0FFC2A0D2A18005E5A030E706C2A28D
:0501FE00D2A280F522F1
:100217001201EEC2A2C2A0C2A1D2A28FA0C2A22284
:100227001201EEC2A2D2A0C2A1D2A28FA0C2A22264
:0200CD00AE0380
:1000CF00EF75F040A424802DFF120217E4FDEDC35D
:1000DF009E501BAB2DAA2EA92F1201BEFF12022775
:0E00EF007401252FF52FE4352EF52E0D80E03F
:0100FD0022E0
:100203007F381202177F0C1202177F061202177F24
:0402130001020217CB
:1001D700D2977F02120237C2977F147E00120183E3
:0701E700D2977F1E020237D0
:1001A100E4FEFD3097FD7F28120237EE25E0FE3098
:0C01B10097010E2097FD0DBD08E9AF0678
:0101BD00221F
:1000FE001201D720972A3097FD7F50120237120136
:10010E00A1AC071201A18F301201A1AB071201A100
:10011E008F311201A18F327F321202378B088C0978
:01012E0022AE
:10015A007F80120217E4FE740A2EF8E6FF120227C5
:10016A000EBE10F37FC0120217E4FE741A2EF8E6D0
:08017A00FF1202270EBE10F374
:01018200225A
:10008F001202031200FEE50875F00A842430F51001
:10009F00E50875F00A84E5F02430F511E50975F0EF
:1000AF000A842430F520E50975F00A84E5F0243040
:0E00BF00F52112015A7F0A7E0012018380C5CE
:10000F0002008FE493A3F8E493A34003F68001F278
:10001F0008DFF48029E493A3F85407240CC8C333F2
:10002F00C4540F4420C8834004F456800146F6DFC1
:10003F00E4800B010204081020408090012FE47E21
:10004F00019360BCA3FF543F30E509541FFEE493B6
:10005F00A360010ECF54C025E060A840B8E493A37D
:10006F00FAE493A3F8E493A3C8C582C8CAC583CAA8
:10007F00F0A3C8C582C8CAC583CADFE9DEE780BE60
:0101590000A5
:1001BE00BB010689828A83E0225002E722BBFE023F
:0901CE00E32289828A83E4932272
:00000001FF
