:0300000002007289
:0C007200787FE4F6D8FD75810B020003D6
:0A007E00C0F9A4B0999282F88090B6
:10000300750814750900750A64E508D39400400463
:100013007F0180027F00EF60E7E50A150AAE0970F1
:100023000215094E6007AF0812003480EC150880F2
:01003300D2FA
:100034008F0BE50B75F00A84E5F090007E93F59044
:1000440075A0FD120063E4F5A0E50B75F00A849039
:0F005400007E93F59075A0FE120063E4F5A022E4
:0E0063007F2C7E01EF1FAC0670011E4C70F664
:01007100226C
:00000001FF
