:03000000020003F8
:0C000300787FE4F6D8FD75813702004AD2
:10014F0010122048756D202054656D20202020202E
:10015F002020102220202025202020202043202076
:10016F00202020200A0830313233343536373839E1
:0701DD007F381202077F05C5
:0D01E400EFD3940040077E6EDEFE1F80F317
:0101F10022EB
:1001A500D3EF9400EE940040147D6E7C00ED1D703D
:0D01B500011CED4C70F7EF1F70E61E80E39B
:0101C200221A
:05024B00007F0CDFFE46
:01025000228B
:05025100007F0CDFFE40
:010256002285
:10020700C292C290C2918FA07F051201E4D292C21E
:02021700922231
:10021900C292C291D2908FA07F051201E4D292C2FC
:0202290092221F
:0F022B00C292C290D291E5A05480FFD292C292AB
:01023A0022A1
:1001C3001201DD7F011201DF7F061201DF1201DD63
:0A01D3007F0C1202077F050201E411
:100116007F851201DFE4FD74122DF8E6FF12021945
:100126007F051201E412022BEF70FA0DBD10E87F75
:10013600C51201DFE4FD74222DF8E6FF1202197FD5
:08014600051201E40DBD10EEED
:01014E00228E
:10023B00D296C2967F197E001201A5D29602025168
:10018000E4FEFD3096FD12024B7801AF06EF0880C9
:100190000123D8FDFE3096064306012096FD0DBDD5
:0401A00008E1AF06BD
:0101A4002238
:10008F0012023B3096030201153096FD2096FD12A9
:10009F0001808F321201808F331201808F34120151
:1000AF0080A9071201808F3712024BE5322533FFEB
:1000BF00E433FE7C00EF2534FFEC3EFEE92FFFEC2E
:1000CF003EFEEFB5370DECB50609AA32853335ABD9
:1000DF00348936EA75F00A842408F8E6F523EA75C0
:1000EF00F00A84740825F0F8E6F524EB75F00A841D
:1000FF002408F8E6F528EB75F00A84740825F0F863
:06010F00E6F529752ADF68
:0101150022C7
:1001F2001201C31201167FE87E031201A512008FBD
:0502020012011680F856
:10000F000201F2E493A3F8E493A34003F68001F214
:10001F0008DFF48029E493A3F85407240CC8C333F2
:10002F00C4540F4420C8834004F456800146F6DFC1
:10003F00E4800B010204081020408090014FE47E01
:10004F00019360BCA3FF543F30E509541FFEE493B6
:10005F00A360010ECF54C025E060A840B8E493A37D
:10006F00FAE493A3F8E493A3C8C582C8CAC583CAA8
:10007F00F0A3C8C582C8CAC583CADFE9DEE780BE60
:01017F00007F
:00000001FF
