:03000000020003F8
:0C000300787FE4F6D8FD75811702004AF2
:1000C80010080000006600990081008100420024A9
:0200D80000180E
:0D00DB00EFD3940040077E6EDEFE1F80F321
:0100E80022F5
:10008F00E4FDE4FC7B01E4FAEBF4F5A0EA2D540760
:10009F0025E02408F808E6F4F5B07801AF03EF087F
:1000AF00800123D8FDFB7F021200DB0ABA08D90CAE
:0900BF00BC64D10DBD08CB80C763
:10000F0002008FE493A3F8E493A34003F68001F278
:10001F0008DFF48029E493A3F85407240CC8C333F2
:10002F00C4540F4420C8834004F456800146F6DFC1
:10003F00E4800B01020408102040809000C8E47E89
:10004F00019360BCA3FF543F30E509541FFEE493B6
:10005F00A360010ECF54C025E060A840B8E493A37D
:10006F00FAE493A3F8E493A3C8C582C8CAC583CAA8
:10007F00F0A3C8C582C8CAC583CADFE9DEE780BE60
:0100DA000025
:00000001FF
